:1000000045C0000058C0000056C0000054C00000A9
:1000100052C0000050C000004EC000004CC00000A4
:100020004AC0000048C0000046C0000044C00000B4
:1000300042C0000040C000003EC000003CC00000C4
:100040003AC0000038C0000036C0000034C00000D4
:1000500032C0000030C000002EC000002CC00000E4
:100060002AC0000028C0000026C0000024C00000F4
:1000700022C0000020C000001EC000001CC0000004
:100080001AC0000018C0000016C0000011241FBED6
:10009000CFEFD0E1DEBFCDBF13E0A0E0B1E0E4E5FB
:1000A000F8E000E00BBF02C007900D92AE3BB10735
:1000B000D9F75BD3CDC3A4CFE0910201F091030146
:1000C00010820000E0910201F091030181E0808341
:1000D000000000000000E0910001F0910101808328
:1000E00000000000E0910201F09103011082000085
:1000F000E0910001F0910101108283EF91E00197FE
:10010000F1F700C000000895E0910201F0910301B1
:1001100010820000E0910201F091030121E02083B0
:10012000000000000000E0910001F0910101880F43
:10013000991F6460862B808300000000E09102011B
:10014000F091030110820000E0910001F0910101A3
:1001500010820895E0910201F091030110820000E5
:10016000E0910201F091030121E0208300000000F2
:100170000000E0910001F0910101880F991F880FA4
:10018000991F482B4860660F771F642B608300001F
:100190000000E0910201F091030110820000E09163
:1001A0000001F091010110820895E0910201F091A7
:1001B000030110820000E0910201F091030121E0AF
:1001C0002083000000000000E0910001F091010197
:1001D00082959295907F9827807F98278062660FFE
:1001E000771F660F771F660F771F682B440F551F09
:1001F000440F551F462B408300000000E091020190
:10020000F091030110820000E0910001F0910101E2
:1002100010820895E0910201F0910301962F990F49
:10022000990F90830000E0910201F0910301660FA5
:10023000771F660F771F6160608300000000000079
:10024000E0910001F0910101808300000000E09145
:100250000201F091030110820000E0910001F09191
:1002600001011082089540E050E061E070E081E01B
:1002700090E09BDF83EF91E00197F1F700C0000071
:1002800040E050E060E070E081E090E063DF83EF09
:1002900091E00197F1F700C000000EDF83EF91E0DD
:1002A0000197F1F700C0000060E070E081E090E0AD
:1002B0002BDF83EF91E00197F1F700C00000089574
:1002C00061E070E0A7DF89EF90E00197F1F700C0EF
:1002D00000000895CF93DF93EC018881882329F0F3
:1002E0002196EEDF89918111FCCFDF91CF910895A6
:1002F00090E4899F600D1124862F60E070E0806893
:1003000089CF0895EBE9F0E0908195FFFDCF8093D0
:100310009C000895CF93DF93EC018881882331F00E
:10032000219690E0EFDF89918111FBCFC4E0D1E00D
:10033000888190E0E7DF898190E0E4DFDF91CF9171
:100340000895CF93DF93EC018881882331F02196C3
:1003500090E0D8DF89918111FBCFDF91CF91089593
:10036000EBE9F0E080818823ECF780919C00089510
:100370000F931F93CF93DF93082F192FF1DF8D3049
:10038000E9F7EEDF8A30E9F7EBDF8D30E9F7E8DFF8
:100390008A30E9F7C02FD12F8E01E2DF89938D30AB
:1003A000D9F7F8011082DF91CF911F910F91089535
:1003B0000F931F93CF93DF93082F192FD1DF8D3029
:1003C000E9F7CEDF8A30E9F7CBDF8D30E9F7C8DF18
:1003D0008A30E9F7C5DF8D30E9F7C2DF8A30E9F707
:1003E000C02FD12F8E01BCDF89938D30D9F7F80152
:1003F0001082DF91CF911F910F9108950F931F935A
:10040000CF93DF93082F192FABDF8D30E9F7A8DFEB
:100410008A30E9F7A5DF8D30E9F7A2DF8A30E9F706
:10042000C02FD12F8E019CDF89938D30D9F7F80131
:100430001082DF91CF911F910F910895CF93DF9399
:10044000EC018EDF8D30E9F78BDF8A30E9F788DF4A
:100450008D30E9F71982DF91CF91089587E080937D
:1004600064009FEF9ABB82B908951092980088E0CB
:100470008093990098E190939A0086E080939D0084
:100480001092900023E329B99AB9809395000895BA
:100490000F931F93CF93DF93CDB7DEB7C659D10922
:1004A0000FB6F894DEBF0FBECDBF2FE38DE093E013
:1004B000215080409040E1F700C0000082E38E01AF
:1004C0000F5F1F4FD801E82F1D92EA95E9F7FE0153
:1004D000F396DF01282F1D922A95E9F7F296DF01A6
:1004E0001D928A95E9F785EB92E0F4DEBFE7E4E838
:1004F000FEE1B150E040F040E1F700C0000060E0F4
:1005000081E0F6DE2FE38DE093E0215080409040C3
:10051000E1F700C0000080EC92E0DCDE8AEC92E0C3
:10052000F9DEC80125DF6FE972E0C80188D1892BA7
:1005300009F04EC0AFE7B6E9E8E9A150B040E040AD
:10054000E1F700C000008FE992E0C4DEFFE726E992
:1005500088E9F15020408040E1F700C00000198296
:1005600060E081E0C5DE9FE3ADE0B3E09150A040E4
:10057000B040E1F700C000008DEC92E0ABDE60E03F
:1005800081E0B6DEEFE3FDE023E0E150F040204003
:10059000E1F700C000008EED92E09CDE85EE92E077
:1005A000B9DE8FE392E4AFE081509040A040E1F7E4
:1005B00000C0000081EF92E0ADDECE01C3961EDFE9
:1005C00069E173E0CE01C3963AD1892BE1F404C00E
:1005D0008FEA92E07FDEFFCFBFE7E6E9F8E9B150AE
:1005E000E040F040E1F700C0000085E293E072DEF9
:1005F0002FE786E998E9215080409040E1F700C05C
:1006000000001BAA2CC06DE273E0CE01C39617D187
:10061000892BB9F4AFE7B6E9E8E9A150B040E04072
:10062000E1F700C0000085E293E054DEFFE726E931
:1006300088E9F15020408040E1F700C000001BAA8B
:100640000EC011DE9FE3ADE0B3E09150A040B0409A
:10065000E1F700C00000CE01C3963CDEFFCF8CE383
:1006600093E058DE60E081E043DEEFE3FDE023E06D
:10067000E150F0402040E1F700C000008DEC92E036
:1006800029DE60E081E034DE8FE392E4AFE0815068
:100690009040A040E1F700C0000088E493E01ADE3B
:1006A000BFE7E6E9F8E9B150E040F040E1F700C00B
:1006B000000081E593E02EDECE018B599F4F78DE5E
:1006C0006FE972E0CE018B599F4FB9D0892B09F0A9
:1006D0003BC02FE786E998E9215080409040E1F740
:1006E00000C0000085E293E0F5DDAFE7B6E9E8E998
:1006F000A150B040E040E1F700C000001BAA60E05C
:1007000081E0F6DDFFE32DE083E0F1502040804002
:10071000E1F700C000008DEC92E0DCDD60E081E0FC
:10072000E7DD9FE7A6E9B8E99150A040B040E1F7C6
:1007300000C00000EFE7F6E928E9E150F040204072
:10074000E1F700C0000005C0CE018B599F4FC2DD0C
:10075000FFCFCA56DF4F0FB6F894DEBF0FBECDBF36
:10076000DF91CF911F910F910895CF93DF93CDB774
:10077000DEB7CA55D1090FB6F894DEBF0FBECDBFA4
:100780008E010F5F1F4F8AE5F80111928A95E9F7F4
:100790006CDEFFE32DE083E0F15020408040E1F784
:1007A00000C000005BDE83E083B9E1EEF4E0319746
:1007B000F1F700C0000057DD6BDE55DDFFE32DE0F3
:1007C00083E0F15020408040E1F700C000009FE34B
:1007D000E2E4FFE09150E040F040E1F700C00000AB
:1007E0002FE38DE093E0215080409040E1F700C07E
:1007F000000081E993E08EDDEFE7F4E82EE1E150BF
:10080000F0402040E1F700C000008FE993E099DD5F
:10081000C80114DE8FE39DE0E3E081509040E040AA
:10082000E1F700C00000FFE32DE083E0F15020403D
:100830008040E1F700C00000C8014CDDFFCFFB01A4
:10084000DC018D91019080190110D9F3990B089565
:04085000F894FFCF4A
:100854003B0065000D0A0053656E64696E672E2EB9
:100864002E0041542B43495053454E443D343600E9
:1008740077616464723A312000474554202F7761D0
:100884006464722F776164647231007761646472A6
:100894003A322000474554202F77616464722F77E1
:1008A40061646472320077616464723A3320004791
:1008B4004554202F77616464722F776164647233C6
:1008C4000077616464723A342000474554202F77DE
:1008D400616464722F776164647234007761646464
:1008E400723A352000474554202F77616464722F93
:1008F4007761646472350077616464723A3620000B
:10090400474554202F77616464722F776164647261
:1009140036006A616464723A31002F6A61646472F9
:100924002F6A61646472312F20485454502F312E41
:10093400310D0A0D0A006A616464723A32002F6A4A
:10094400616464722F6A61646472322F2048545463
:10095400502F312E310D0A0D0A006A616464723A17
:1009640033002F6A616464722F6A61646472332F86
:1009740020485454502F312E310D0A0D0A006A615B
:100984006464723A34002F6A616464722F6A616429
:100994006472342F20485454502F312E310D0A0DD7
:1009A4000A006A616464723A35002F6A6164647291
:1009B4002F6A61646472352F20485454502F312EAD
:1009C400310D0A0D0A006A616464723A36002F6AB6
:1009D400616464722F6A61646472362F20485454CF
:1009E400502F312E310D0A0D0A0053454E44204F2D
:1009F4004B00535543434553532053454E44004500
:100A040052524F52004C6F6164696E672E2E2E0055
:100A140057692D46692041543A0041540020202052
:100A24002020202020202020202020202000576962
:100A34002D46693A0041542B43574D4F44453D31AF
:100A44000041542B43574A41503D226F6C6C6568FA
:100A54005F576946695F41353836222C2230303081
:100A64003030303830353722005749464920474F17
:100A74005420495000535543434553530057494666
:100A84004920434F4E4E45435445440041542B4363
:100A940049504D55583D3000534552564552533AEE
:100AA4000041542B43495053544152543D22544322
:100AB40050222C223131392E3230372E3138362E15
:100AC400313239222C38383838004D6173746572EC
:100AD4005F5265706561746572004D4153544552AF
:100AE4000041542B43495053454E443D3330004755
:100AF4004554202F77616464722F77616464723186
:0E0B040020485454502F312E310D0A0D0A0096
:00000001FF
