:1000000045C0000058C0000056C0000054C00000A9
:1000100052C0000050C000004EC000004CC00000A4
:100020004AC0000048C0000046C0000044C00000B4
:1000300042C0000040C000003EC000003CC00000C4
:100040003AC0000038C0000036C0000034C00000D4
:1000500032C0000030C000002EC000002CC00000E4
:100060002AC0000028C0000026C0000024C00000F4
:1000700022C0000020C000001EC000001CC0000004
:100080001AC0000018C0000016C0000011241FBED6
:10009000CFEFD0E1DEBFCDBF11E0A0E0B1E0E8E6F8
:1000A000F3E000E00BBF02C007900D92AC30B10747
:1000B000D9F74AD157C1A4CFE0910201F0910301D1
:1000C00010820000E0910201F091030184E080833E
:1000D000000000000000E0910001F091010181E0CA
:1000E000808300000000E0910201F0910301108282
:1000F0000000E0910001F091010110820895E0916B
:100100000201F091030110820000E0910201F091E0
:10011000030124E02083000000000000E0910001C2
:10012000F0910101880F991F6460862B8083000085
:100130000000E0910201F091030110820000E091C3
:100140000001F091010110820895E0910201F09107
:10015000030110820000E0910201F091030124E00C
:100160002083000000000000E0910001F0910101F7
:10017000880F991F880F991F482B4860660F771FBB
:10018000642B608300000000E0910201F091030104
:1001900010820000E0910001F091010110820895A9
:1001A000E0910201F091030110820000E091020150
:1001B000F091030124E02083000000000000E091A2
:1001C0000001F091010124E0880F991F2A95E1F7C1
:1001D000806233E0660F771F3A95E1F7682B440F92
:1001E000551F440F551F462B408300000000E0912F
:1001F0000201F091030110820000E0910001F091F2
:10020000010110820895E0910201F0910301108232
:100210000000E0910201F091030194E0908300005E
:1002200000000000E0910001F09101018F738064F3
:10023000808300000000E0910201F0910301108230
:100240000000E0910001F091010110820895E09119
:100250000201F091030110820000E0910201F0918F
:10026000030164606083000000000000E091000171
:10027000F09101018068808300000000E09102019C
:10028000F091030110820000E0910001F091010162
:1002900010820895E0910201F091030191E09083B2
:1002A0000000E0910201F091030195E090830000CD
:1002B00000000000E0910001F09101018083000046
:1002C0000000E0910201F091030110820000E09132
:1002D0000001F09101011082089540E050E061E0DA
:1002E00070E081E090E05CDF40E050E060E070E0D2
:1002F00081E090E02ADFE0DE60E070E081E090E005
:10030000FECE0F931F93CF93DF938B017CDFE80129
:10031000085F1F4F8991BEDFC017D107D9F7DF9162
:10032000CF911F910F910895CF93C62F61E070E098
:100330008EDF8C2FCF9167CF87E08ABB8FEF84BB96
:1003400082E0809361000895F7DFC7DF82E0809349
:10035000620064E071E080E090E0D3DF60E080E084
:08036000E3DFFFCFF894FFCFAB
:0C03680035003B0004040404041F1F00C7
:00000001FF
