S021000056524D535F557365725F4465766963655F4669726D776172652E7372656372
S113000045C0000061C000005FC000005DC000008A
S11300105BC0000071C5000042C60000C7C60000F6
S113002053C0000051C00000E8C700004DC00000EC
S11300304BC0000049C0000047C0000045C000009C
S1130040E7C6000041C000003FC000003DC0000002
S11300503BC0000039C0000037C0000035C00000BC
S113006033C0000031C000002FC000002DC00000CC
S11300702BC0000029C0000027C0000025C00000DC
S113008023C0000021C000001FC0000011241FBEB7
S1130090CFEFD0E1DEBFCDBF11E0A0E0B1E0ECE9ED
S11300A0F6E100E00BBF02C007900D92A83EB10735
S11300B0D9F722E0A8EEB1E001C01D92A534B20741
S11300C0E1F7FFD40C944C0B9BCF8F92AF92CF925D
S11300D0EF920F93CF93DF93CDB7DEB7FC0171831B
S11300E06083468B73836283278B75836483008F5D
S11300F077836683E18E71876087C28E7387628798
S1130100A38E75876487848E778766878A85858FB3
S1130110DF91CF910F91EF90CF90AF908F90089592
S11301200F93FC01718B608B468F738B628B278FCF
S1130130758B648B00A30F910895EF92FF920F9338
S11301401F93CF93DF93BC01EC01FC0176967C01F5
S11301508EE1E80EF11C01E010E0A991B9912C9117
S1130160A801019002C0440F551F0A94E2F7942F8E
S1130170909592239C93EE15FF0579F7DB01509639
S1130180ED91FC915197308181E090E0AC015E9655
S11301900C905E9702C0440F551F0A94E2F7242F77
S11301A02095232320835296ED91FC91539730811F
S11301B0AC015F960C905F9702C0440F551F0A94E0
S11301C0E2F7242F2095232320835496ED91FC916C
S11301D05597208190960C9002C0880F991F0A941D
S11301E0E2F7809582238083DF91CF911F910F9155
S11301F0FF90EF900895CF93DF93EC019EDF000012
S1130200EC89FD89408181E090E09C0108A002C056
S1130210220F331F0A94E2F7242B208300000000EE
S11302200000E881F98120810E8802C0880F991F9F
S11302300A94E2F7822B808300000000CE017DDF68
S1130240DF91CF9108950F931F93CF93DF93EC0128
S1130250162F042F72DF0000EC89FD89408181E0B4
S113026090E09C0108A002C0220F331F0A94E2F719
S1130270242B2083000000000000E881F981208104
S1130280402F50E00E8802C0440F551F0A94E2F735
S1130290422B4083EA81FB812081612F70E00F882B
S11302A002C0660F771F0A94E2F7622B6083EC8129
S11302B0FD812081088C02C0880F991F0A94E2F7FF
S11302C0822B808300000000CE0137DFDF91CF91C5
S11302D01F910F910895FF920F931F93CF93DF9374
S11302E0EC01162F042FF22E28DF0000EC89FD8983
S11302F0408181E090E09C0108A002C0220F331FDE
S11303000A94E2F7242B2083000000000000E88117
S1130310F98140812F2D30E00E8802C0220F331F57
S11303200A94E2F7242B2083EA81FB812081402F69
S113033050E00F8802C0440F551F0A94E2F7422B85
S11303404083EC81FD812081612F70E0088C02C024
S1130350660F771F0A94E2F7622B6083EE81FF81B8
S11303602081098C02C0880F991F0A94E2F7822B1E
S1130370808300000000CE01E0DEDF91CF911F9169
S11303800F91FF900895FF920F931F93CF93DF93E4
S1130390EC01162F042FF22ED0DE0000EC89FD892B
S11303A0408181E090E09C0108A002C0220F331F2D
S11303B00A94E2F7242B2083000000000000EC8163
S11303C0FD8140812F2D30E0088C02C0220F331FA5
S11303D00A94E2F7242B2083EE81FF812081402FB1
S11303E050E0098C02C0440F551F0A94E2F7422BD7
S11303F04083E885F9852081612F70E00A8C02C072
S1130400660F771F0A94E2F7622B6083EA85FB8507
S113041020810B8C02C0880F991F0A94E2F7822B6B
S1130420808300000000CE0188DEDF91CF911F9110
S11304300F91FF900895CF92DF92FF920F931F9335
S1130440CF93DF936C01F62E78DED6015096ED91B2
S1130450FC915197408181E090E09C015E960C9064
S11304605E9702C0220F331F0A94E2F7242B2083E5
S113047000005496ED91FC915597208190960C9034
S1130480909702C0880F991F0A94E2F7822B808309
S1130490000000000000E601569620E030E001E094
S11304A010E06F2D70E0E991F991F080C801022EFF
S11304B002C0880F991F0A94E2F786239723022E1D
S11304C002C0959587950A94E2F70D9002C0880FB3
S11304D0991F0A94E2F78F2980832F5F3F4F2830BA
S11304E0310509F700000000C60127DEDF91CF9136
S11304F01F910F91FF90DF90CF9008959CDF000033
S11305000000000000000000000008950F931F93F6
S1130510CF93DF93EB016881662339F08C01219638
S1130520C801ECDF69916111FBCFDF91CF911F917D
S11305300F91089570E09B0140E4849F200D311DCC
S11305401124C90160E0806876CF089581E090E0CD
S1130550AC010090EC0102C0440F551F0A94E2F76D
S11305609C010090000102C0220F331F0A94E2F79D
S1130570422B9C010090010102C0220F331F0A94F8
S1130580E2F7242B0090020102C0880F991F0A94FD
S1130590E2F7822B8093610012B88FE38ABF109236
S11305A0900087E689B998E19AB986E0809395002E
S11305B01092980029E12093990090939A008093D7
S11305C09D0087E083BF85E085BD85E687BFA1E008
S11305D0B2E0E4EFF1E881918D93E93F81E8F80717
S11305E0D1F708958F92AF92CF92EF920F938FEF3E
S11305F08ABB87E0809364008F930F2EF6E08F2EE2
S1130600F02D0F2EF5E0AF2EF02D6894CC24C2F817
S11306100F2EF3E0EF2EF02D02E021E040E06BE33B
S113062070E084E292E051DD00E021E042E065E622
S113063070E084E292E074DD61E771E084E292E0CC
S113064065DF83EF91E00197F1F700C0000060E0FF
S113065081E070DF0F900F91EF90CF90AF908F906B
S1130660089520E041E061E084E292E08CDE83EFD3
S113067091E00197F1F700C0000020E040E061E064
S113068084E292E028DE83EF91E00197F1F700C065
S1130690000084E292E0AFDD83EF91E00197F1F78F
S11306A000C0000040E061E084E292E0CCDD83EF32
S11306B091E00197F1F700C000000895CF93DF9314
S11306C0EC01DB0140910080442309F445C0642F10
S11306D070E01616170684F420E030E0F901EF5FAD
S11306E0FF479081E881F981E20FF31F90832F5F28
S11306F03F4F2617370791F750E0CA01880F991F1B
S1130700C80FD91FE881F9811082FA01EF5FFF4712
S11307103081632F70E01616170694F480E090E0A1
S11307204E5F5F47FA01E80FF91F2081ED91FC91BC
S11307301197E80FF91F208301968617970791F701
S1130740632F70E0660F771FA60FB71FED91FC9122
S1130750108281E090E002C080E090E0DF91CF91D0
S11307600895EBE9F0E0908195FFFDCF80939C0024
S11307700895CF93DF93EC018881882329F0219693
S1130780F0DF89918111FCCFDF91CF910895EBE9DE
S1130790F0E080818823ECF780919C000895AF926B
S11307A0BF92CF92DF92EF92FF920F931F93CF935A
S11307B0DF937C01F894EBDF8B32E9F7E8DF8A33CF
S11307C0E9F78701C0E0D0E001C021966801DFDFCE
S11307D0F80181938F018A33C1F78CE2F60180839B
S11307E08E010F5F1F4F0E0D1F1D01C0E6016E012C
S11307F0FFEFCF1ADF0A5801CADFF80181938F0196
S11308008A33A1F78CE2F50180832296CE0DDF1D99
S11308108E01BDDF89938C32D9F7F8011082DF9104
S1130820CF911F910F91FF90EF90DF90CF90BF90E9
S1130830AF900895CF93DF93CDB7DEB76E970FB621
S1130840F894DEBF0FBECDBFF8948FE0FE01319661
S1130850DF01982F1D929A95E9F73F96DF011D92CB
S11308608A95E9F794DF8B37E9F791DF89838C3236
S1130870E1F719828CDF8032E9F789DF888B8D37C5
S1130880E1F7188ABE016F5F7F4F85E192E011D4D2
S1130890892B21F4CE014096E4D302C08FEF9FEF61
S11308A06E960FB6F894DEBF0FBECDBFDF91CF9129
S11308B00895E2E6F0E0408181E090E09C01009040
S11308C0020102C0220F331F0A94E2F7242B208373
S11308D0A3EDB0E31197F1F700C000002081009070
S11308E0010102C0880F991F0A94E2F7822B8083CA
S11308F083ED90E30197F1F700C0000082E891E0F6
S113090038DFA7E8B3E11197F1F700C000008CE8E5
S113091091E02FDF87E893E10197F1F700C0000031
S113092088E991E026DFA7E8B3E11197F1F700C069
S1130930000089EA91E01DDF87E893E10197F1F770
S113094000C000000895EF92FF920F931F93CF937E
S1130950DF93CDB7DEB7E2970FB6F894DEBF0FBED4
S1130960CDBF7C018E010F5F1F4F84E1D8011D9222
S11309708A95E9F78AEB91E0FCDEC80110DFB80143
S1130980C70197D3892B29F189E0E3E0F1E0DE0187
S1130990559601900D928A95E1F7FE017E9685E1C8
S11309A0DF011D928A95E9F7D701ED91FC91108240
S11309B0B801C70187D3BE016B5E7F4FC8016ED3F8
S11309C0CE014596D6DEE7E8F3E13197F1F700C0B2
S11309D00000E2960FB6F894DEBF0FBECDBFDF91E4
S11309E0CF911F910F91FF90EF9008955D9BFECFE3
S11309F08CB90895CF93DF93EC018881882329F083
S1130A002196F4DF89918111FCCFDF91CF91089574
S1130A10CF93DF93CDB7DEB764970FB6F894DEBFFC
S1130A200FBECDBFF894FE01319684E1DF011D9223
S1130A308A95E9F7ACDE8B37E9F7A9DE89838D3730
S1130A40E1F763EC71E0CE01019633D3892B49F4CD
S1130A5081E092E0CFDF85E991E0CCDF81E090E0B6
S1130A6002C080E090E064960FB6F894DEBF0FBE3B
S1130A70CDBFDF91CF9108950F931F93CF93DF9351
S1130A808C01EB01F89483DE8B37E9F780DE90E08C
S1130A90F801918380838D379105C1F71382128207
S1130AA076DE8B37E9F773DE90E0998388838D37A0
S1130AB09105C9F71B821A82DF91CF911F910F9183
S1130AC0089544DD8FDDF5DE66E072E085E192E0B5
S1130AD0F5DD892B19F408B606FEFDCF78948DEE6A
S1130AE091E031DF2FE986E891E021508040904089
S1130AF0E1F700C00000F2CF1F920F920FB60F92E1
S1130B0011240BB60F92FF920F931F932F933F93D1
S1130B104F935F936F937F938F939F93AF93BF9301
S1130B20EF93FF93CF93DF93CDB7DEB7E797DEBFA5
S1130B30CDBFF8946894FF24F5F88E01085E1F4F2A
S1130B4088E0E1E2F1E0DE01509601900D928A9591
S1130B50E1F7F8012F2D11922A95E9F7BE01605FA4
S1130B607F4F85E192E09AD2BE01605F7F4F8BECAC
S1130B7091E094D2BE01605F7F4F86E092E08ED216
S1130B80BE01605F7F4F8BEC91E088D2BE01605F55
S1130B907F4F81E092E082D2BE01605F7F4F80EDA3
S1130BA091E07CD2CE014096E4DD44DE9093E901ED
S1130BB08093E8018F3FEFEF9E0709F4C1CF8E01C8
S1130BC00F5F1F4F2FE0F80111922A95E9F79F93C9
S1130BD08F9383ED91E09F938F931F930F9381D213
S1130BE040DD83EF91E00197F1F700C0000066ED6E
S1130BF071E084E292E08ADCE7E8F3E13197F1F70F
S1130C0000C0000065E172E084E292E07FDC87E8E6
S1130C1093E10197F1F700C0000060E081E08ADC15
S1130C20E3EFF1E03197F1F700C000006EED71E001
S1130C3084E292E06BDC87E893E10197F1F700C06E
S1130C400000B80184E292E061DCE7E8F3E1319767
S1130C50F1F700C000000F900F900F900F900F90CD
S1130C600F90E7960FB6F894DEBF0FBECDBFDF91AD
S1130C70CF91FF91EF91BF91AF919F918F917F9110
S1130C806F915F914F913F912F911F910F91FF9021
S1130C900F900BBE0F900FBE0F901F9018951F92D0
S1130CA00F920FB60F9211240BB60F922F933F930E
S1130CB04F935F936F937F938F939F93AF93BF9360
S1130CC0EF93FF93CF93DF93CDB7DEB7A897DEBF43
S1130CD0CDBFF89488E0E9E4F1E0DE0111960190DB
S1130CE00D928A95E1F7FE01399680E2DF011D92AB
S1130CF08A95E9F7BE016F5F7F4F85E192E0CED11F
S1130D00BE016F5F7F4F8BEC91E0C8D1BE016F5F76
S1130D107F4F86E092E0C2D1BE016F5F7F4F8BECC4
S1130D2091E0BCD1BE016F5F7F4F81E092E0B6D10C
S1130D30BE016F5F7F4F80ED91E0B0D1CE0101968F
S1130D4018DDE2E6F0E0408181E090E09C01009053
S1130D50EC0102C0220F331F0A94E2F7242B2083F4
S1130D6020810090000102C0880F991F0A94E2F7C5
S1130D70809582238083A8960FB6F894DEBF0FBEB9
S1130D80CDBFDF91CF91FF91EF91BF91AF919F9133
S1130D908F917F916F915F914F913F912F910F9020
S1130DA00BBE0F900FBE0F901F9018951F920F92BD
S1130DB00FB60F9211240BB60F922F933F934F93BC
S1130DC05F936F937F938F939F93AF93BF93EF93AF
S1130DD0FF93F8941DDE892BE9F366E072E085E168
S1130DE092E04ADE08B606FCFDCFFF91EF91BF9179
S1130DF0AF919F918F917F916F915F914F913F91AF
S1130E002F910F900BBE0F900FBE0F901F9018954F
S1130E101F920F920FB60F9211240BB60F92FF92EE
S1130E200F931F932F933F934F935F936F937F93EE
S1130E308F939F93AF93BF93EF93FF93CF93DF93DE
S1130E40CDB7DEB7A897DEBFCDBF8091EA01909100
S1130E50EB018C342EE0920709F0ACC0F89468944E
S1130E60FF24F5F88E01075F1F4F88E0E1E2F1E00F
S1130E70DE01119601900D928A95E1F7F8012F2D6C
S1130E8011922A95E9F7BE016F5F7F4F85E192E0E9
S1130E9005D1BE016F5F7F4F8BEC91E0FFD0BE01A7
S1130EA06F5F7F4F86E092E0F9D0BE016F5F7F4FA6
S1130EB08BEC91E0F3D0BE016F5F7F4F81E092E055
S1130EC0EDD0BE016F5F7F4F80ED91E0E7D0CE01A2
S1130ED001964FDCAFDC9093E9018093E8018F3FEA
S1130EE0EFEF9E0709F4C1CF8E010F5F1F4F2FE074
S1130EF0F80111922A95E9F79F938F9383ED91E07E
S1130F009F938F931F930F93ECD0ABDB83EF91E010
S1130F100197F1F700C0000066ED71E084E292E011
S1130F20F5DAE7E8F3E13197F1F700C0000065E195
S1130F3072E084E292E0EADA87E893E10197F1F75C
S1130F4000C0000060E081E0F5DAE3EFF1E0319702
S1130F50F1F700C000006EED71E084E292E0D6DAB1
S1130F6087E893E10197F1F700C00000B80184E23B
S1130F7092E0CCDAE7E8F3E13197F1F700C0000042
S1130F808091620021E030E00090EC0102C0220F69
S1130F90331F0A94E2F790E041E00F900F900F9016
S1130FA00F900F900F902817390709F040E04093F5
S1130FB0620005C001969093EB018093EA01A89624
S1130FC00FB6F894DEBF0FBECDBFDF91CF91FF9176
S1130FD0EF91BF91AF919F918F917F916F915F91AD
S1130FE04F913F912F911F910F91FF900F900BBE46
S1130FF00F900FBE0F901F9018951F920F920FB66F
S11310000F9211240BB60F922F938F939F93EF930C
S1131010FF938091EA019091EB018D33910581F466
S1131020E2E6F0E0208181E090E00090000102C05F
S1131030880F991F0A94E2F782278095808305C060
S113104001969093EB018093EA01FF91EF919F91B8
S11310508F912F910F900BBE0F900FBE0F901F908A
S11310601895FC0188279927E89421912032E9F307
S1131070293010F02E30C8F32B3239F02D3231F4F0
S1131080689403C026D0820F911D219120532A30E9
S1131090C8F31EF4909581959F4F0895FB01DC01E0
S11310A00D900020E9F7119701900D920020E1F7CF
S11310B00895FB01DC018D91019080190110D9F391
S11310C0990B0895FB01DC0101900D920020E1F7DA
S11310D008957AE0979F902D879F802D910D11247C
S11310E008950F931F93CF93DF93CDB7DEB72E9759
S11310F00FB6F894DEBF0FBECDBF0D891E8986E002
S11311008C831A8309838FEF9FE79E838D83AE01BF
S1131110475E5F4F6F89788DCE01019610D0EF81C5
S1131120F885E00FF11F10822E960FB6F894DEBFFB
S11311300FBECDBFDF91CF911F910F9108952F92D4
S11311403F924F925F926F927F928F929F92AF9253
S1131150BF92CF92DF92EF92FF920F931F93CF93A0
S1131160DF93CDB7DEB72B970FB6F894DEBF0FBE73
S1131170CDBF6C017B018A01FC0117821682838139
S113118081FFBFC1CE0101963C01F6019381F701B5
S113119093FD859193FF81917F01882309F4ADC16B
S11311A0853239F493FD859193FF81917F018532D6
S11311B021F4B60190E0D6D1E8CF912C212C312C2A
S11311C0FFE1F315D8F08B3279F038F4803279F0FE
S11311D08332A1F4232D20611DC08D3261F0803350
S11311E069F4232D216016C0832D8260382EE32DEF
S11311F0E4603E2E2AC0F32DF8601DC037FC2DC0DC
S113120020ED280F2A3040F08E32B9F436FC75C137
S1131210232D2064322E19C036FE06C08AE0989E23
S1131220200D1124922E11C0EAE02E9E200D1124CF
S1131230222EF32DF0623F2E08C08C3621F4832D2C
S11312408068382E02C0883641F4F70193FD8591F9
S113125093FF81917F018111B3CF982F9F7D955486
S1131260933028F40C5F1F4F9FE399830DC083369E
S113127031F0833771F0833509F055C020C0F8018F
S1131280808189830E5F1F4F88248394912C53019E
S113129012C02801F2E04F0E511CF801A080B18069
S11312A036FE03C0692D70E002C06FEF7FEFC50109
S11312B04ED14C018201F32DFF773F2E15C028013A
S11312C022E0420E511CF801A080B18036FE03C01A
S11312D0692D70E002C06FEF7FEFC5012DD14C0185
S11312E0F32DF0683F2E820133FC19C0822D90E06B
S11312F088169906A0F4B60180E290E033D12A94CE
S1131300F5CFF50137FC859137FE81915F01B60178
S113131090E028D121102A9421E0821A91088114A6
S1131320910479F7E1C0843611F0893639F5F80172
S113133037FE07C060817181828193810C5F1F4FEA
S113134008C060817181072E000C880B990B0E5F19
S11313501F4FF32DFF763F2E97FF09C09095809580
S1131360709561957F4F8F4F9F4FF0683F2E2AE015
S113137030E0A30133D1882E861844C0853731F478
S1131380232D2F7EB22E2AE030E025C0932D997FA5
S1131390B92E8F36C1F018F4883579F0AEC0803795
S11313A019F0883721F0A9C0E92FE061BE2EB4FE00
S11313B00DC0FB2DF460BF2E09C034FE0AC0292FD6
S11313C02660B22E06C028E030E005C020E130E0FF
S11313D002C020E132E0F801B7FE07C060817181EC
S11313E0828193810C5F1F4F06C06081718180E010
S11313F090E00E5F1F4FA301F1D0882E8618FB2DBD
S1131400FF773F2E36FE0DC0232D2E7FA22E89148A
S113141058F434FE0BC032FC09C0832D8E7EA82EF6
S113142005C0B82CA32C03C0B82C01C0B92CA4FE51
S11314300FC0FE01E80DF11D8081803321F49A2D47
S1131440997EA92E09C0A2FE06C0B394B39404C029
S11314508A2D867809F0B394A3FC10C0A0FE06C0C0
S1131460B21480F4280C922C9B180DC0B21458F4BA
S1131470B60180E290E076D0B394F8CFB21418F4B9
S11314802B1802C0982C212CA4FE0FC0B60180E3B7
S113149090E068D0A2FE16C0A1FC03C088E790E0EB
S11314A002C088E590E0B6010CC08A2D867851F020
S11314B0A1FE02C08BE201C080E2A7FC8DE2B6016E
S11314C090E050D0891430F4B60180E390E04AD023
S11314D09A94F8CF8A94F301E80DF11D8081B60146
S11314E090E040D08110F6CF222009F44ECEB60110
S11314F080E290E037D02A94F7CFF6018681978175
S113150002C08FEF9FEF2B960FB6F894DEBF0FBE8D
S1131510CDBFDF91CF911F910F91FF90EF90DF909E
S1131520CF90BF90AF909F908F907F906F905F907F
S11315304F903F902F900895FC01059061507040AA
S11315400110D8F7809590958E0F9F1F0895FC0188
S11315506150704001900110D8F7809590958E0FDE
S11315609F1F08950F931F93CF93DF93FB01238154
S113157021FD03C08FEF9FEF2CC022FF16C04681D0
S11315805781248135814217530744F4A081B181E6
S11315909D012F5F3F4F318320838C9326813781B8
S11315A02F5F3F4F3783268314C08B01EC01FB016F
S11315B00084F185E02D0995892BE1F6D801169672
S11315C08D919C911797019617969C938E931697DD
S11315D0CE01DF91CF911F910F910895FA01AA27AF
S11315E0283051F1203181F1E8946F936E7F6E5F62
S11315F07F4F8F4F9F4FAF4FB1E03ED0B4E03CD010
S1131600670F781F891F9A1FA11D680F791F8A1FF2
S1131610911DA11D6A0F711D811D911DA11D20D059
S113162009F468943F912AE0269F11243019305D13
S11316303193DEF6CF010895462F4770405D419304
S1131640B3E00FD0C9F7F6CF462F4F70405D4A3351
S113165018F0495D31FD4052419302D0A9F7EACF19
S1131660B4E0A6959795879577956795BA95C9F748
S113167000976105710508959B01AC010A2E06943B
S11316805795479537952795BA95C9F7620F731FF4
S10F1690841F951FA01D0895F894FFCF3F
S113169C01050641542B4C494E4B3D000000000003
S11316AC000000000000000000000000000000002A
S11316BC007B2230222C20220000000000000000BD
S11316CC000000000000000000000000000000000A
S11316DC0000000000000000007B2231222C20229C
S11316EC00000000000000000000000000000000EA
S11316FC00000000000000000000000000000000DA
S113170C00557365722044657669636520312E300B
S113171C760041542B494E49540D0A0041542B5226
S113172C4F4C453D310D0A0041542B434C4153530E
S113173C3D45374341390D0A0041542B494E514D17
S113174C3D312C312C34380D0A0041542B494E5167
S113175C0D0A00436F6E6E65637400222C20220008
S113176C227D002564004E616D65203A2000506F87
S10B177C696E74203A2000009C
S9030000FC
